:100000000C9434000C9451000C9451000C94510049
:100010000C9451000C9451000C9451000C9451001C
:100020000C9451000C9451000C9451000C9451000C
:100030000C9451000C9451000C9451000C945100FC
:100040000C9451000C9451000C9451000C945100EC
:100050000C9451000C9451000C9451000C945100DC
:100060000C9451000C94510011241FBECFEFD8E026
:10007000DEBFCDBF11E0A0E0B1E0E2EDF2E002C0F2
:1000800005900D92AC31B107D9F721E0ACE1B1E0B8
:1000900001C01D92AF31B207E1F70E94AD000C9490
:1000A00067010C94000080917C00887F90911E0174
:1000B000892B80937C0080917A00806480937A0001
:1000C00080917A0086FDFCCF809178009091790034
:1000D00008959091C00095FFFCCF8093C6000895CD
:1000E000EF92FF921F93CF93DF9300D000D000D008
:1000F000CDB7DEB7FE01319610E07F012AE030E097
:10010000009711F0163071F41150A0F426960FB636
:10011000F894DEBF0FBECDBFDF91CF911F91FF904E
:10012000EF9008951F5FB9010E942201805D8193C5
:10013000CB01E6CFF701E10FF11D80810E9469003C
:10014000E3CFCF93DF93EC018991811103C0DF915D
:10015000CF9108950E946900F7CF1092C50087E6FD
:100160008093C40088E08093C10086E08093C20041
:1001700083E080931E0183E480937C0087E8809372
:100180007A008AE090E090931D0180931C018EEE2E
:1001900092E0909301018093000104E610E00E9438
:1001A0005300EC010E945300E0911C01F0911D01ED
:1001B000E817F907D8F54091000150910101F12CA1
:1001C000E12C8417950788F49C012E1B3F0BA4E6B5
:1001D000B0E00E9458014E1B5F0B9A0150E040E0D6
:1001E0000E9436017801E21AF30A82E091E00E944F
:1001F000A1002097F9F480E30E94690088E091E073
:100200000E94A100E114F104C9F480E30E94690096
:1002100088E191E00E94A1002FEF83ED90E321504F
:1002200080409040E1F700C00000B9CF84E6E82E9E
:10023000F12CDBCFCE010E947000E0CFC7010E94FD
:100240007000E6CFAA1BBB1B51E107C0AA1FBB1F52
:10025000A617B70710F0A61BB70B881F991F5A9552
:10026000A9F780959095BC01CD010895A1E21A2EC1
:10027000AA1BBB1BFD010DC0AA1FBB1FEE1FFF1F4A
:10028000A217B307E407F50720F0A21BB30BE40B9A
:10029000F50B661F771F881F991F1A9469F76095E1
:1002A0007095809590959B01AC01BD01CF0108959B
:1002B000A29FB001B39FC001A39F700D811D1124A7
:1002C000911DB29F700D811D1124911D0895F89408
:0202D000FFCF5E
:1002D200FF035261773A2000207C204272696768EE
:0C02E200746E6573733A2000250D0A004D
:00000001FF
